{
  "contractName": "Patient",
  "abi": [
    {
      "inputs": [
        {
          "internalType": "string",
          "name": "_firstName",
          "type": "string"
        },
        {
          "internalType": "string",
          "name": "_lastName",
          "type": "string"
        },
        {
          "internalType": "string",
          "name": "_IID",
          "type": "string"
        },
        {
          "internalType": "string",
          "name": "_bdate",
          "type": "string"
        },
        {
          "internalType": "string",
          "name": "_email",
          "type": "string"
        },
        {
          "internalType": "string",
          "name": "_phone",
          "type": "string"
        },
        {
          "internalType": "string",
          "name": "_zip",
          "type": "string"
        },
        {
          "internalType": "string",
          "name": "_city",
          "type": "string"
        },
        {
          "internalType": "string",
          "name": "_encryption_key",
          "type": "string"
        }
      ],
      "stateMutability": "nonpayable",
      "type": "constructor"
    },
    {
      "anonymous": false,
      "inputs": [
        {
          "indexed": false,
          "internalType": "string",
          "name": "return_msg",
          "type": "string"
        },
        {
          "indexed": false,
          "internalType": "address",
          "name": "audit_address",
          "type": "address"
        },
        {
          "indexed": false,
          "internalType": "uint256",
          "name": "record_time",
          "type": "uint256"
        }
      ],
      "name": "event_add_audit",
      "type": "event"
    },
    {
      "anonymous": false,
      "inputs": [
        {
          "indexed": false,
          "internalType": "string",
          "name": "return_msg",
          "type": "string"
        },
        {
          "indexed": false,
          "internalType": "address",
          "name": "doctor_address",
          "type": "address"
        },
        {
          "indexed": false,
          "internalType": "uint256",
          "name": "record_time",
          "type": "uint256"
        }
      ],
      "name": "event_add_doctor",
      "type": "event"
    },
    {
      "anonymous": false,
      "inputs": [
        {
          "indexed": false,
          "internalType": "string",
          "name": "record_msg",
          "type": "string"
        },
        {
          "indexed": false,
          "internalType": "uint256",
          "name": "record_status",
          "type": "uint256"
        },
        {
          "indexed": false,
          "internalType": "uint256",
          "name": "record_time",
          "type": "uint256"
        }
      ],
      "name": "event_doctor_copy",
      "type": "event"
    },
    {
      "anonymous": false,
      "inputs": [
        {
          "indexed": false,
          "internalType": "string",
          "name": "record_msg",
          "type": "string"
        },
        {
          "indexed": false,
          "internalType": "uint256",
          "name": "record_status",
          "type": "uint256"
        },
        {
          "indexed": false,
          "internalType": "uint256",
          "name": "record_time",
          "type": "uint256"
        }
      ],
      "name": "event_doctor_delete",
      "type": "event"
    },
    {
      "anonymous": false,
      "inputs": [
        {
          "indexed": false,
          "internalType": "string",
          "name": "record_msg",
          "type": "string"
        },
        {
          "indexed": false,
          "internalType": "uint256",
          "name": "record_status",
          "type": "uint256"
        },
        {
          "indexed": false,
          "internalType": "uint256",
          "name": "record_time",
          "type": "uint256"
        }
      ],
      "name": "event_doctor_print",
      "type": "event"
    },
    {
      "anonymous": false,
      "inputs": [
        {
          "indexed": false,
          "internalType": "string",
          "name": "record_msg",
          "type": "string"
        },
        {
          "indexed": false,
          "internalType": "uint256",
          "name": "record_status",
          "type": "uint256"
        },
        {
          "indexed": false,
          "internalType": "uint256",
          "name": "record_time",
          "type": "uint256"
        }
      ],
      "name": "event_doctor_query",
      "type": "event"
    },
    {
      "anonymous": false,
      "inputs": [
        {
          "indexed": false,
          "internalType": "string",
          "name": "record_msg",
          "type": "string"
        },
        {
          "indexed": false,
          "internalType": "uint256",
          "name": "record_status",
          "type": "uint256"
        },
        {
          "indexed": false,
          "internalType": "uint256",
          "name": "record_time",
          "type": "uint256"
        }
      ],
      "name": "event_doctor_update",
      "type": "event"
    },
    {
      "anonymous": false,
      "inputs": [
        {
          "indexed": false,
          "internalType": "string",
          "name": "record_msg",
          "type": "string"
        },
        {
          "indexed": false,
          "internalType": "uint256",
          "name": "record_status",
          "type": "uint256"
        },
        {
          "indexed": false,
          "internalType": "uint256",
          "name": "record_time",
          "type": "uint256"
        }
      ],
      "name": "event_patient_delete",
      "type": "event"
    },
    {
      "anonymous": false,
      "inputs": [
        {
          "indexed": false,
          "internalType": "string",
          "name": "record_msg",
          "type": "string"
        },
        {
          "indexed": false,
          "internalType": "uint256",
          "name": "record_status",
          "type": "uint256"
        },
        {
          "indexed": false,
          "internalType": "uint256",
          "name": "record_time",
          "type": "uint256"
        }
      ],
      "name": "event_patient_print",
      "type": "event"
    },
    {
      "anonymous": false,
      "inputs": [
        {
          "indexed": false,
          "internalType": "string",
          "name": "return_msg",
          "type": "string"
        },
        {
          "indexed": false,
          "internalType": "address",
          "name": "audit_address",
          "type": "address"
        },
        {
          "indexed": false,
          "internalType": "uint256",
          "name": "record_time",
          "type": "uint256"
        }
      ],
      "name": "event_remove_audit",
      "type": "event"
    },
    {
      "anonymous": false,
      "inputs": [
        {
          "indexed": false,
          "internalType": "string",
          "name": "return_msg",
          "type": "string"
        },
        {
          "indexed": false,
          "internalType": "address",
          "name": "doctor_address",
          "type": "address"
        },
        {
          "indexed": false,
          "internalType": "uint256",
          "name": "record_time",
          "type": "uint256"
        }
      ],
      "name": "event_remove_doctor",
      "type": "event"
    },
    {
      "anonymous": false,
      "inputs": [
        {
          "indexed": false,
          "internalType": "address",
          "name": "record_unique_id",
          "type": "address"
        },
        {
          "indexed": false,
          "internalType": "string",
          "name": "record_msg",
          "type": "string"
        },
        {
          "indexed": false,
          "internalType": "uint256",
          "name": "record_status",
          "type": "uint256"
        },
        {
          "indexed": false,
          "internalType": "uint256",
          "name": "record_time",
          "type": "uint256"
        }
      ],
      "name": "event_start_visit",
      "type": "event"
    },
    {
      "inputs": [
        {
          "internalType": "address",
          "name": "",
          "type": "address"
        }
      ],
      "name": "audits",
      "outputs": [
        {
          "internalType": "bool",
          "name": "",
          "type": "bool"
        }
      ],
      "stateMutability": "view",
      "type": "function",
      "constant": true
    },
    {
      "inputs": [
        {
          "internalType": "address",
          "name": "",
          "type": "address"
        }
      ],
      "name": "doctors",
      "outputs": [
        {
          "internalType": "bool",
          "name": "",
          "type": "bool"
        }
      ],
      "stateMutability": "view",
      "type": "function",
      "constant": true
    },
    {
      "inputs": [
        {
          "internalType": "address",
          "name": "",
          "type": "address"
        }
      ],
      "name": "record_mapping",
      "outputs": [
        {
          "internalType": "bool",
          "name": "is_uid_generated",
          "type": "bool"
        },
        {
          "internalType": "uint256",
          "name": "record_id",
          "type": "uint256"
        },
        {
          "internalType": "string",
          "name": "record_msg",
          "type": "string"
        },
        {
          "internalType": "uint256",
          "name": "record_status",
          "type": "uint256"
        },
        {
          "internalType": "string",
          "name": "record_details",
          "type": "string"
        },
        {
          "internalType": "address",
          "name": "patient_address",
          "type": "address"
        },
        {
          "internalType": "uint256",
          "name": "record_time",
          "type": "uint256"
        },
        {
          "internalType": "address",
          "name": "doctor",
          "type": "address"
        },
        {
          "internalType": "uint256",
          "name": "doctor_time",
          "type": "uint256"
        },
        {
          "internalType": "address",
          "name": "audit",
          "type": "address"
        },
        {
          "internalType": "uint256",
          "name": "audit_time",
          "type": "uint256"
        }
      ],
      "stateMutability": "view",
      "type": "function",
      "constant": true
    },
    {
      "inputs": [
        {
          "internalType": "uint256",
          "name": "_time",
          "type": "uint256"
        }
      ],
      "name": "start_visit",
      "outputs": [
        {
          "internalType": "address",
          "name": "",
          "type": "address"
        }
      ],
      "stateMutability": "nonpayable",
      "type": "function"
    },
    {
      "inputs": [
        {
          "internalType": "address",
          "name": "_doctor_address",
          "type": "address"
        }
      ],
      "name": "addDoctors",
      "outputs": [
        {
          "internalType": "string",
          "name": "",
          "type": "string"
        }
      ],
      "stateMutability": "nonpayable",
      "type": "function"
    },
    {
      "inputs": [
        {
          "internalType": "address",
          "name": "_doctor_address",
          "type": "address"
        }
      ],
      "name": "removeDoctors",
      "outputs": [
        {
          "internalType": "string",
          "name": "",
          "type": "string"
        }
      ],
      "stateMutability": "nonpayable",
      "type": "function"
    },
    {
      "inputs": [
        {
          "internalType": "address",
          "name": "_audit_address",
          "type": "address"
        }
      ],
      "name": "addAudit",
      "outputs": [
        {
          "internalType": "string",
          "name": "",
          "type": "string"
        }
      ],
      "stateMutability": "nonpayable",
      "type": "function"
    },
    {
      "inputs": [
        {
          "internalType": "address",
          "name": "_audit_address",
          "type": "address"
        }
      ],
      "name": "removeAudit",
      "outputs": [
        {
          "internalType": "string",
          "name": "",
          "type": "string"
        }
      ],
      "stateMutability": "nonpayable",
      "type": "function"
    },
    {
      "inputs": [
        {
          "internalType": "address",
          "name": "_unique_id",
          "type": "address"
        }
      ],
      "name": "get_record_details",
      "outputs": [
        {
          "internalType": "string",
          "name": "",
          "type": "string"
        }
      ],
      "stateMutability": "view",
      "type": "function",
      "constant": true
    },
    {
      "inputs": [
        {
          "internalType": "address",
          "name": "_unique_id",
          "type": "address"
        }
      ],
      "name": "delete_record",
      "outputs": [
        {
          "internalType": "string",
          "name": "",
          "type": "string"
        }
      ],
      "stateMutability": "nonpayable",
      "type": "function"
    },
    {
      "inputs": [
        {
          "internalType": "address",
          "name": "_unique_id",
          "type": "address"
        }
      ],
      "name": "print_record",
      "outputs": [
        {
          "internalType": "string",
          "name": "",
          "type": "string"
        }
      ],
      "stateMutability": "nonpayable",
      "type": "function"
    },
    {
      "inputs": [
        {
          "internalType": "address",
          "name": "_unique_id",
          "type": "address"
        }
      ],
      "name": "doctor_delete_record",
      "outputs": [
        {
          "internalType": "string",
          "name": "",
          "type": "string"
        }
      ],
      "stateMutability": "nonpayable",
      "type": "function"
    },
    {
      "inputs": [
        {
          "internalType": "address",
          "name": "_unique_id",
          "type": "address"
        }
      ],
      "name": "doctor_print_record",
      "outputs": [
        {
          "internalType": "string",
          "name": "",
          "type": "string"
        }
      ],
      "stateMutability": "nonpayable",
      "type": "function"
    },
    {
      "inputs": [
        {
          "internalType": "address",
          "name": "_unique_id",
          "type": "address"
        }
      ],
      "name": "doctor_query_record",
      "outputs": [
        {
          "internalType": "string",
          "name": "",
          "type": "string"
        }
      ],
      "stateMutability": "nonpayable",
      "type": "function"
    },
    {
      "inputs": [
        {
          "internalType": "address",
          "name": "_unique_id",
          "type": "address"
        }
      ],
      "name": "doctor_copy_record",
      "outputs": [
        {
          "internalType": "string",
          "name": "",
          "type": "string"
        }
      ],
      "stateMutability": "nonpayable",
      "type": "function"
    },
    {
      "inputs": [
        {
          "internalType": "address",
          "name": "_unique_id",
          "type": "address"
        },
        {
          "internalType": "string",
          "name": "_update",
          "type": "string"
        }
      ],
      "name": "doctor_update_record",
      "outputs": [
        {
          "internalType": "string",
          "name": "",
          "type": "string"
        }
      ],
      "stateMutability": "nonpayable",
      "type": "function"
    }
  ],
  "bytecode": "0x60806040523480156200001157600080fd5b50604051620050e7380380620050e783398181016040526101208110156200003857600080fd5b81019080805160405193929190846401000000008211156200005957600080fd5b838201915060208201858111156200007057600080fd5b82518660018202830111640100000000821117156200008e57600080fd5b8083526020830192505050908051906020019080838360005b83811015620000c4578082015181840152602081019050620000a7565b50505050905090810190601f168015620000f25780820380516001836020036101000a031916815260200191505b50604052602001805160405193929190846401000000008211156200011657600080fd5b838201915060208201858111156200012d57600080fd5b82518660018202830111640100000000821117156200014b57600080fd5b8083526020830192505050908051906020019080838360005b838110156200018157808201518184015260208101905062000164565b50505050905090810190601f168015620001af5780820380516001836020036101000a031916815260200191505b5060405260200180516040519392919084640100000000821115620001d357600080fd5b83820191506020820185811115620001ea57600080fd5b82518660018202830111640100000000821117156200020857600080fd5b8083526020830192505050908051906020019080838360005b838110156200023e57808201518184015260208101905062000221565b50505050905090810190601f1680156200026c5780820380516001836020036101000a031916815260200191505b50604052602001805160405193929190846401000000008211156200029057600080fd5b83820191506020820185811115620002a757600080fd5b8251866001820283011164010000000082111715620002c557600080fd5b8083526020830192505050908051906020019080838360005b83811015620002fb578082015181840152602081019050620002de565b50505050905090810190601f168015620003295780820380516001836020036101000a031916815260200191505b50604052602001805160405193929190846401000000008211156200034d57600080fd5b838201915060208201858111156200036457600080fd5b82518660018202830111640100000000821117156200038257600080fd5b8083526020830192505050908051906020019080838360005b83811015620003b85780820151818401526020810190506200039b565b50505050905090810190601f168015620003e65780820380516001836020036101000a031916815260200191505b50604052602001805160405193929190846401000000008211156200040a57600080fd5b838201915060208201858111156200042157600080fd5b82518660018202830111640100000000821117156200043f57600080fd5b8083526020830192505050908051906020019080838360005b838110156200047557808201518184015260208101905062000458565b50505050905090810190601f168015620004a35780820380516001836020036101000a031916815260200191505b5060405260200180516040519392919084640100000000821115620004c757600080fd5b83820191506020820185811115620004de57600080fd5b8251866001820283011164010000000082111715620004fc57600080fd5b8083526020830192505050908051906020019080838360005b838110156200053257808201518184015260208101905062000515565b50505050905090810190601f168015620005605780820380516001836020036101000a031916815260200191505b50604052602001805160405193929190846401000000008211156200058457600080fd5b838201915060208201858111156200059b57600080fd5b8251866001820283011164010000000082111715620005b957600080fd5b8083526020830192505050908051906020019080838360005b83811015620005ef578082015181840152602081019050620005d2565b50505050905090810190601f1680156200061d5780820380516001836020036101000a031916815260200191505b50604052602001805160405193929190846401000000008211156200064157600080fd5b838201915060208201858111156200065857600080fd5b82518660018202830111640100000000821117156200067657600080fd5b8083526020830192505050908051906020019080838360005b83811015620006ac5780820151818401526020810190506200068f565b50505050905090810190601f168015620006da5780820380516001836020036101000a031916815260200191505b50604052505050336000806101000a81548173ffffffffffffffffffffffffffffffffffffffff021916908373ffffffffffffffffffffffffffffffffffffffff16021790555088600190805190602001906200073992919062000811565b5087600290805190602001906200075292919062000811565b5086600390805190602001906200076b92919062000811565b5085600490805190602001906200078492919062000811565b5084600590805190602001906200079d92919062000811565b508360069080519060200190620007b692919062000811565b508260079080519060200190620007cf92919062000811565b508160089080519060200190620007e892919062000811565b5080600990805190602001906200080192919062000811565b50505050505050505050620008c0565b828054600181600116156101000203166002900490600052602060002090601f016020900481019282601f106200085457805160ff191683800117855562000885565b8280016001018555821562000885579182015b828111156200088457825182559160200191906001019062000867565b5b50905062000894919062000898565b5090565b620008bd91905b80821115620008b95760008160009055506001016200089f565b5090565b90565b61481780620008d06000396000f3fe608060405234801561001057600080fd5b506004361061011d576000357c010000000000000000000000000000000000000000000000000000000090048063b1649729116100b4578063d60bd31011610083578063d60bd31014610ab7578063db1bf8d814610b74578063e111265d14610c31578063f6c25bbd14610cee5761011d565b8063b164972914610812578063b24be0a1146108cf578063b6e478e51461093d578063c73d6d9e146109fa5761011d565b8063a0da0ea3116100f0578063a0da0ea314610549578063a7bf973c14610606578063a9583c221461075a578063ab7fca1c146107b65761011d565b80630389523d146101225780630cb16b71146101df57806316161f02146103cf5780631fe8bb6a1461048c575b600080fd5b6101646004803603602081101561013857600080fd5b81019080803573ffffffffffffffffffffffffffffffffffffffff169060200190929190505050610dab565b6040518080602001828103825283818151815260200191508051906020019080838360005b838110156101a4578082015181840152602081019050610189565b50505050905090810190601f1680156101d15780820380516001836020036101000a031916815260200191505b509250505060405180910390f35b610221600480360360208110156101f557600080fd5b81019080803573ffffffffffffffffffffffffffffffffffffffff169060200190929190505050611493565b604051808c1515151581526020018b8152602001806020018a8152602001806020018973ffffffffffffffffffffffffffffffffffffffff1673ffffffffffffffffffffffffffffffffffffffff1681526020018881526020018773ffffffffffffffffffffffffffffffffffffffff1673ffffffffffffffffffffffffffffffffffffffff1681526020018681526020018573ffffffffffffffffffffffffffffffffffffffff1673ffffffffffffffffffffffffffffffffffffffff16815260200184815260200183810383528c818151815260200191508051906020019080838360005b83811015610323578082015181840152602081019050610308565b50505050905090810190601f1680156103505780820380516001836020036101000a031916815260200191505b5083810382528a818151815260200191508051906020019080838360005b8381101561038957808201518184015260208101905061036e565b50505050905090810190601f1680156103b65780820380516001836020036101000a031916815260200191505b509d505050505050505050505050505060405180910390f35b610411600480360360208110156103e557600080fd5b81019080803573ffffffffffffffffffffffffffffffffffffffff16906020019092919050505061168a565b6040518080602001828103825283818151815260200191508051906020019080838360005b83811015610451578082015181840152602081019050610436565b50505050905090810190601f16801561047e5780820380516001836020036101000a031916815260200191505b509250505060405180910390f35b6104ce600480360360208110156104a257600080fd5b81019080803573ffffffffffffffffffffffffffffffffffffffff169060200190929190505050611aca565b6040518080602001828103825283818151815260200191508051906020019080838360005b8381101561050e5780820151818401526020810190506104f3565b50505050905090810190601f16801561053b5780820380516001836020036101000a031916815260200191505b509250505060405180910390f35b61058b6004803603602081101561055f57600080fd5b81019080803573ffffffffffffffffffffffffffffffffffffffff169060200190929190505050611cb0565b6040518080602001828103825283818151815260200191508051906020019080838360005b838110156105cb5780820151818401526020810190506105b0565b50505050905090810190601f1680156105f85780820380516001836020036101000a031916815260200191505b509250505060405180910390f35b6106df6004803603604081101561061c57600080fd5b81019080803573ffffffffffffffffffffffffffffffffffffffff1690602001909291908035906020019064010000000081111561065957600080fd5b82018360208201111561066b57600080fd5b8035906020019184600183028401116401000000008311171561068d57600080fd5b91908080601f016020809104026020016040519081016040528093929190818152602001838380828437600081840152601f19601f820116905080830192505050505050509192919290505050612148565b6040518080602001828103825283818151815260200191508051906020019080838360005b8381101561071f578082015181840152602081019050610704565b50505050905090810190601f16801561074c5780820380516001836020036101000a031916815260200191505b509250505060405180910390f35b61079c6004803603602081101561077057600080fd5b81019080803573ffffffffffffffffffffffffffffffffffffffff1690602001909291905050506125d0565b604051808215151515815260200191505060405180910390f35b6107f8600480360360208110156107cc57600080fd5b81019080803573ffffffffffffffffffffffffffffffffffffffff1690602001909291905050506125f0565b604051808215151515815260200191505060405180910390f35b6108546004803603602081101561082857600080fd5b81019080803573ffffffffffffffffffffffffffffffffffffffff169060200190929190505050612610565b6040518080602001828103825283818151815260200191508051906020019080838360005b83811015610894578082015181840152602081019050610879565b50505050905090810190601f1680156108c15780820380516001836020036101000a031916815260200191505b509250505060405180910390f35b6108fb600480360360208110156108e557600080fd5b81019080803590602001909291905050506127f6565b604051808273ffffffffffffffffffffffffffffffffffffffff1673ffffffffffffffffffffffffffffffffffffffff16815260200191505060405180910390f35b61097f6004803603602081101561095357600080fd5b81019080803573ffffffffffffffffffffffffffffffffffffffff169060200190929190505050612e04565b6040518080602001828103825283818151815260200191508051906020019080838360005b838110156109bf5780820151818401526020810190506109a4565b50505050905090810190601f1680156109ec5780820380516001836020036101000a031916815260200191505b509250505060405180910390f35b610a3c60048036036020811015610a1057600080fd5b81019080803573ffffffffffffffffffffffffffffffffffffffff169060200190929190505050613234565b6040518080602001828103825283818151815260200191508051906020019080838360005b83811015610a7c578082015181840152602081019050610a61565b50505050905090810190601f168015610aa95780820380516001836020036101000a031916815260200191505b509250505060405180910390f35b610af960048036036020811015610acd57600080fd5b81019080803573ffffffffffffffffffffffffffffffffffffffff169060200190929190505050613a88565b6040518080602001828103825283818151815260200191508051906020019080838360005b83811015610b39578082015181840152602081019050610b1e565b50505050905090810190601f168015610b665780820380516001836020036101000a031916815260200191505b509250505060405180910390f35b610bb660048036036020811015610b8a57600080fd5b81019080803573ffffffffffffffffffffffffffffffffffffffff169060200190929190505050613c6f565b6040518080602001828103825283818151815260200191508051906020019080838360005b83811015610bf6578082015181840152602081019050610bdb565b50505050905090810190601f168015610c235780820380516001836020036101000a031916815260200191505b509250505060405180910390f35b610c7360048036036020811015610c4757600080fd5b81019080803573ffffffffffffffffffffffffffffffffffffffff169060200190929190505050613e55565b6040518080602001828103825283818151815260200191508051906020019080838360005b83811015610cb3578082015181840152602081019050610c98565b50505050905090810190601f168015610ce05780820380516001836020036101000a031916815260200191505b509250505060405180910390f35b610d3060048036036020811015610d0457600080fd5b81019080803573ffffffffffffffffffffffffffffffffffffffff169060200190929190505050614342565b6040518080602001828103825283818151815260200191508051906020019080838360005b83811015610d70578082015181840152602081019050610d55565b50505050905090810190601f168015610d9d5780820380516001836020036101000a031916815260200191505b509250505060405180910390f35b606060011515600a60008473ffffffffffffffffffffffffffffffffffffffff1673ffffffffffffffffffffffffffffffffffffffff16815260200190815260200160002060000160009054906101000a900460ff16151514610e0d57600080fd5b6001600a60008473ffffffffffffffffffffffffffffffffffffffff1673ffffffffffffffffffffffffffffffffffffffff168152602001908152602001600020600301541415610e5d57600080fd5b3373ffffffffffffffffffffffffffffffffffffffff16600a60008473ffffffffffffffffffffffffffffffffffffffff1673ffffffffffffffffffffffffffffffffffffffff16815260200190815260200160002060050160009054906101000a900473ffffffffffffffffffffffffffffffffffffffff1673ffffffffffffffffffffffffffffffffffffffff16141561106f573373ffffffffffffffffffffffffffffffffffffffff16600a60008473ffffffffffffffffffffffffffffffffffffffff1673ffffffffffffffffffffffffffffffffffffffff16815260200190815260200160002060050160009054906101000a900473ffffffffffffffffffffffffffffffffffffffff1673ffffffffffffffffffffffffffffffffffffffff1614610f8d57600080fd5b600a60008373ffffffffffffffffffffffffffffffffffffffff1673ffffffffffffffffffffffffffffffffffffffff1681526020019081526020016000206004018054600181600116156101000203166002900480601f0160208091040260200160405190810160405280929190818152602001828054600181600116156101000203166002900480156110635780601f1061103857610100808354040283529160200191611063565b820191906000526020600020905b81548152906001019060200180831161104657829003601f168201915b5050505050905061148e565b600b60003373ffffffffffffffffffffffffffffffffffffffff1673ffffffffffffffffffffffffffffffffffffffff16815260200190815260200160002060009054906101000a900460ff161561126257600b60003373ffffffffffffffffffffffffffffffffffffffff1673ffffffffffffffffffffffffffffffffffffffff16815260200190815260200160002060009054906101000a900460ff16611180576040517f08c379a000000000000000000000000000000000000000000000000000000000815260040180806020018281038252600b8152602001807f4e6f7420776f726b696e6700000000000000000000000000000000000000000081525060200191505060405180910390fd5b600a60008373ffffffffffffffffffffffffffffffffffffffff1673ffffffffffffffffffffffffffffffffffffffff1681526020019081526020016000206004018054600181600116156101000203166002900480601f0160208091040260200160405190810160405280929190818152602001828054600181600116156101000203166002900480156112565780601f1061122b57610100808354040283529160200191611256565b820191906000526020600020905b81548152906001019060200180831161123957829003601f168201915b5050505050905061148e565b600c60003373ffffffffffffffffffffffffffffffffffffffff1673ffffffffffffffffffffffffffffffffffffffff16815260200190815260200160002060009054906101000a900460ff161561145557600c60003373ffffffffffffffffffffffffffffffffffffffff1673ffffffffffffffffffffffffffffffffffffffff16815260200190815260200160002060009054906101000a900460ff16611373576040517f08c379a000000000000000000000000000000000000000000000000000000000815260040180806020018281038252600b8152602001807f4e6f7420776f726b696e6700000000000000000000000000000000000000000081525060200191505060405180910390fd5b600a60008373ffffffffffffffffffffffffffffffffffffffff1673ffffffffffffffffffffffffffffffffffffffff1681526020019081526020016000206004018054600181600116156101000203166002900480601f0160208091040260200160405190810160405280929190818152602001828054600181600116156101000203166002900480156114495780601f1061141e57610100808354040283529160200191611449565b820191906000526020600020905b81548152906001019060200180831161142c57829003601f168201915b5050505050905061148e565b6040518060400160405280601a81526020017f596f752068617665206e6f20617574686f72697a6174696f6e2e00000000000081525090505b919050565b600a6020528060005260406000206000915090508060000160009054906101000a900460ff1690806001015490806002018054600181600116156101000203166002900480601f0160208091040260200160405190810160405280929190818152602001828054600181600116156101000203166002900480156115585780601f1061152d57610100808354040283529160200191611558565b820191906000526020600020905b81548152906001019060200180831161153b57829003601f168201915b505050505090806003015490806004018054600181600116156101000203166002900480601f0160208091040260200160405190810160405280929190818152602001828054600181600116156101000203166002900480156115fc5780601f106115d1576101008083540402835291602001916115fc565b820191906000526020600020905b8154815290600101906020018083116115df57829003601f168201915b5050505050908060050160009054906101000a900473ffffffffffffffffffffffffffffffffffffffff16908060060154908060070160009054906101000a900473ffffffffffffffffffffffffffffffffffffffff16908060080154908060090160009054906101000a900473ffffffffffffffffffffffffffffffffffffffff169080600a015490508b565b6060600a60008373ffffffffffffffffffffffffffffffffffffffff1673ffffffffffffffffffffffffffffffffffffffff16815260200190815260200160002060000160009054906101000a900460ff166116e557600080fd5b6001600a60008473ffffffffffffffffffffffffffffffffffffffff1673ffffffffffffffffffffffffffffffffffffffff16815260200190815260200160002060030154141561173557600080fd5b33600a60008473ffffffffffffffffffffffffffffffffffffffff1673ffffffffffffffffffffffffffffffffffffffff16815260200190815260200160002060070160006101000a81548173ffffffffffffffffffffffffffffffffffffffff021916908373ffffffffffffffffffffffffffffffffffffffff16021790555042600a60008473ffffffffffffffffffffffffffffffffffffffff1673ffffffffffffffffffffffffffffffffffffffff1681526020019081526020016000206008018190555060405180602001604052806000815250600a60008473ffffffffffffffffffffffffffffffffffffffff1673ffffffffffffffffffffffffffffffffffffffff168152602001908152602001600020600401908051906020019061186292919061473c565b506001600a60008473ffffffffffffffffffffffffffffffffffffffff1673ffffffffffffffffffffffffffffffffffffffff168152602001908152602001600020600301819055506040518060400160405280601c81526020017f5265636f72642069732064656c6574656420627920646f63746f722e00000000815250600a60008473ffffffffffffffffffffffffffffffffffffffff1673ffffffffffffffffffffffffffffffffffffffff168152602001908152602001600020600201908051906020019061193692919061473c565b507f41e7aef4a9a40592736811efa52bae55e6fd1cd88db143dc78a6370b2aac0960600a60008473ffffffffffffffffffffffffffffffffffffffff1673ffffffffffffffffffffffffffffffffffffffff168152602001908152602001600020600201600a60008573ffffffffffffffffffffffffffffffffffffffff1673ffffffffffffffffffffffffffffffffffffffff16815260200190815260200160002060030154600a60008673ffffffffffffffffffffffffffffffffffffffff1673ffffffffffffffffffffffffffffffffffffffff168152602001908152602001600020600601546040518080602001848152602001838152602001828103825285818154600181600116156101000203166002900481526020019150805460018160011615610100020316600290048015611ab55780601f10611a8a57610100808354040283529160200191611ab5565b820191906000526020600020905b815481529060010190602001808311611a9857829003601f168201915b505094505050505060405180910390a1919050565b60603373ffffffffffffffffffffffffffffffffffffffff166000809054906101000a900473ffffffffffffffffffffffffffffffffffffffff1673ffffffffffffffffffffffffffffffffffffffff1614611b2557600080fd5b600b60008373ffffffffffffffffffffffffffffffffffffffff1673ffffffffffffffffffffffffffffffffffffffff16815260200190815260200160002060009054906101000a900460ff1615611bd0576000600b60008473ffffffffffffffffffffffffffffffffffffffff1673ffffffffffffffffffffffffffffffffffffffff16815260200190815260200160002060006101000a81548160ff0219169083151502179055505b7ed12f5594e82ad336a8fa185a7cc3aab483eddcf14e26ebc4ea81f6400b120a824260405180806020018473ffffffffffffffffffffffffffffffffffffffff1673ffffffffffffffffffffffffffffffffffffffff168152602001838152602001828103825260148152602001807f4120646f63746f722069732072656d6f7665642e000000000000000000000000815250602001935050505060405180910390a16040518060400160405280601481526020017f4120646f63746f722069732072656d6f7665642e0000000000000000000000008152509050919050565b606060011515600a60008473ffffffffffffffffffffffffffffffffffffffff1673ffffffffffffffffffffffffffffffffffffffff16815260200190815260200160002060000160009054906101000a900460ff16151514611d1257600080fd5b3373ffffffffffffffffffffffffffffffffffffffff16600a60008473ffffffffffffffffffffffffffffffffffffffff1673ffffffffffffffffffffffffffffffffffffffff16815260200190815260200160002060050160009054906101000a900473ffffffffffffffffffffffffffffffffffffffff1673ffffffffffffffffffffffffffffffffffffffff1614611dac57600080fd5b6001600a60008473ffffffffffffffffffffffffffffffffffffffff1673ffffffffffffffffffffffffffffffffffffffff168152602001908152602001600020600301541415611dfc57600080fd5b60405180602001604052806000815250600a60008473ffffffffffffffffffffffffffffffffffffffff1673ffffffffffffffffffffffffffffffffffffffff1681526020019081526020016000206004019080519060200190611e6192919061473c565b5042600a60008473ffffffffffffffffffffffffffffffffffffffff1673ffffffffffffffffffffffffffffffffffffffff168152602001908152602001600020600601819055506001600a60008473ffffffffffffffffffffffffffffffffffffffff1673ffffffffffffffffffffffffffffffffffffffff168152602001908152602001600020600301819055506040518060400160405280601d81526020017f5265636f72642069732064656c657465642062792070617469656e742e000000815250600a60008473ffffffffffffffffffffffffffffffffffffffff1673ffffffffffffffffffffffffffffffffffffffff1681526020019081526020016000206002019080519060200190611f7c92919061473c565b507fc5451672c113180dcc201ad0122fe0677464f75276e03a264699d75d16906378600a60008473ffffffffffffffffffffffffffffffffffffffff1673ffffffffffffffffffffffffffffffffffffffff168152602001908152602001600020600201600a60008573ffffffffffffffffffffffffffffffffffffffff1673ffffffffffffffffffffffffffffffffffffffff16815260200190815260200160002060030154600a60008673ffffffffffffffffffffffffffffffffffffffff1673ffffffffffffffffffffffffffffffffffffffff1681526020019081526020016000206006015460405180806020018481526020018381526020018281038252858181546001816001161561010002031660029004815260200191508054600181600116156101000203166002900480156120fb5780601f106120d0576101008083540402835291602001916120fb565b820191906000526020600020905b8154815290600101906020018083116120de57829003601f168201915b505094505050505060405180910390a16040518060400160405280601d81526020017f5265636f72642069732064656c657465642062792070617469656e742e0000008152509050919050565b6060600a60008473ffffffffffffffffffffffffffffffffffffffff1673ffffffffffffffffffffffffffffffffffffffff16815260200190815260200160002060000160009054906101000a900460ff166121a357600080fd5b600b60003373ffffffffffffffffffffffffffffffffffffffff1673ffffffffffffffffffffffffffffffffffffffff16815260200190815260200160002060009054906101000a900460ff166121f957600080fd5b6001600a60008573ffffffffffffffffffffffffffffffffffffffff1673ffffffffffffffffffffffffffffffffffffffff16815260200190815260200160002060030154141561224957600080fd5b33600a60008573ffffffffffffffffffffffffffffffffffffffff1673ffffffffffffffffffffffffffffffffffffffff16815260200190815260200160002060070160006101000a81548173ffffffffffffffffffffffffffffffffffffffff021916908373ffffffffffffffffffffffffffffffffffffffff16021790555042600a60008573ffffffffffffffffffffffffffffffffffffffff1673ffffffffffffffffffffffffffffffffffffffff1681526020019081526020016000206008018190555081600a60008573ffffffffffffffffffffffffffffffffffffffff1673ffffffffffffffffffffffffffffffffffffffff168152602001908152602001600020600401908051906020019061236792919061473c565b506005600a60008573ffffffffffffffffffffffffffffffffffffffff1673ffffffffffffffffffffffffffffffffffffffff168152602001908152602001600020600301819055506040518060400160405280601c81526020017f5265636f7264206973207570646174656420627920646f63746f722e00000000815250600a60008573ffffffffffffffffffffffffffffffffffffffff1673ffffffffffffffffffffffffffffffffffffffff168152602001908152602001600020600201908051906020019061243b92919061473c565b507f89c9a137dd6383374b8e2a092d40bc74fda69a614e9ece010b1f4eaded8f841c600a60008573ffffffffffffffffffffffffffffffffffffffff1673ffffffffffffffffffffffffffffffffffffffff168152602001908152602001600020600201600a60008673ffffffffffffffffffffffffffffffffffffffff1673ffffffffffffffffffffffffffffffffffffffff16815260200190815260200160002060030154600a60008773ffffffffffffffffffffffffffffffffffffffff1673ffffffffffffffffffffffffffffffffffffffff1681526020019081526020016000206006015460405180806020018481526020018381526020018281038252858181546001816001161561010002031660029004815260200191508054600181600116156101000203166002900480156125ba5780601f1061258f576101008083540402835291602001916125ba565b820191906000526020600020905b81548152906001019060200180831161259d57829003601f168201915b505094505050505060405180910390a192915050565b600b6020528060005260406000206000915054906101000a900460ff1681565b600c6020528060005260406000206000915054906101000a900460ff1681565b60603373ffffffffffffffffffffffffffffffffffffffff166000809054906101000a900473ffffffffffffffffffffffffffffffffffffffff1673ffffffffffffffffffffffffffffffffffffffff161461266b57600080fd5b600c60008373ffffffffffffffffffffffffffffffffffffffff1673ffffffffffffffffffffffffffffffffffffffff16815260200190815260200160002060009054906101000a900460ff16612715576001600c60008473ffffffffffffffffffffffffffffffffffffffff1673ffffffffffffffffffffffffffffffffffffffff16815260200190815260200160002060006101000a81548160ff0219169083151502179055505b7f8fbe047a5fafe34457a33e6bd83075c8ffed3878dc48a48d31ce3948bbb22cd4824260405180806020018473ffffffffffffffffffffffffffffffffffffffff1673ffffffffffffffffffffffffffffffffffffffff168152602001838152602001828103825260128152602001807f416e2061756469742069732061646465642e0000000000000000000000000000815250602001935050505060405180910390a16040518060400160405280601281526020017f416e2061756469742069732061646465642e00000000000000000000000000008152509050919050565b60003373ffffffffffffffffffffffffffffffffffffffff166000809054906101000a900473ffffffffffffffffffffffffffffffffffffffff1673ffffffffffffffffffffffffffffffffffffffff161461285157600080fd5b600060023342604051602001808373ffffffffffffffffffffffffffffffffffffffff1673ffffffffffffffffffffffffffffffffffffffff166c01000000000000000000000000028152601401828152602001925050506040516020818303038152906040526040518082805190602001908083835b602083106128eb57805182526020820191506020810190506020830392506128c8565b6001836020036101000a038019825116818451168082178552505050505050905001915050602060405180830381855afa15801561292d573d6000803e3d6000fd5b5050506040513d602081101561294257600080fd5b81019080805190602001909291905050506001900490506001600a60008373ffffffffffffffffffffffffffffffffffffffff1673ffffffffffffffffffffffffffffffffffffffff16815260200190815260200160002060000160006101000a81548160ff0219169083151502179055508073ffffffffffffffffffffffffffffffffffffffff16600a60008373ffffffffffffffffffffffffffffffffffffffff1673ffffffffffffffffffffffffffffffffffffffff168152602001908152602001600020600101819055506040518060400160405280601d81526020017f4e6577204d65646963616c205265636f72642069732063726561746564000000815250600a60008373ffffffffffffffffffffffffffffffffffffffff1673ffffffffffffffffffffffffffffffffffffffff1681526020019081526020016000206002019080519060200190612a9c92919061473c565b506000600a60008373ffffffffffffffffffffffffffffffffffffffff1673ffffffffffffffffffffffffffffffffffffffff168152602001908152602001600020600301819055506040518060400160405280600e81526020017f566973697420696e697469617465000000000000000000000000000000000000815250600a60008373ffffffffffffffffffffffffffffffffffffffff1673ffffffffffffffffffffffffffffffffffffffff1681526020019081526020016000206004019080519060200190612b7092919061473c565b5033600a60008373ffffffffffffffffffffffffffffffffffffffff1673ffffffffffffffffffffffffffffffffffffffff16815260200190815260200160002060050160006101000a81548173ffffffffffffffffffffffffffffffffffffffff021916908373ffffffffffffffffffffffffffffffffffffffff16021790555082600a60008373ffffffffffffffffffffffffffffffffffffffff1673ffffffffffffffffffffffffffffffffffffffff168152602001908152602001600020600601819055507f14207ac2653501de32da60b3fee91a4d0c170419f5edd0528124b1c526a7050981600a60008473ffffffffffffffffffffffffffffffffffffffff1673ffffffffffffffffffffffffffffffffffffffff168152602001908152602001600020600201600a60008573ffffffffffffffffffffffffffffffffffffffff1673ffffffffffffffffffffffffffffffffffffffff16815260200190815260200160002060030154600a60008673ffffffffffffffffffffffffffffffffffffffff1673ffffffffffffffffffffffffffffffffffffffff16815260200190815260200160002060060154604051808573ffffffffffffffffffffffffffffffffffffffff1673ffffffffffffffffffffffffffffffffffffffff16815260200180602001848152602001838152602001828103825285818154600181600116156101000203166002900481526020019150805460018160011615610100020316600290048015612dea5780601f10612dbf57610100808354040283529160200191612dea565b820191906000526020600020905b815481529060010190602001808311612dcd57829003601f168201915b50509550505050505060405180910390a180915050919050565b6060600a60008373ffffffffffffffffffffffffffffffffffffffff1673ffffffffffffffffffffffffffffffffffffffff16815260200190815260200160002060000160009054906101000a900460ff16612e5f57600080fd5b600c60003373ffffffffffffffffffffffffffffffffffffffff1673ffffffffffffffffffffffffffffffffffffffff16815260200190815260200160002060009054906101000a900460ff16612eb557600080fd5b6001600a60008473ffffffffffffffffffffffffffffffffffffffff1673ffffffffffffffffffffffffffffffffffffffff168152602001908152602001600020600301541415612f0557600080fd5b33600a60008473ffffffffffffffffffffffffffffffffffffffff1673ffffffffffffffffffffffffffffffffffffffff16815260200190815260200160002060090160006101000a81548173ffffffffffffffffffffffffffffffffffffffff021916908373ffffffffffffffffffffffffffffffffffffffff16021790555042600a60008473ffffffffffffffffffffffffffffffffffffffff1673ffffffffffffffffffffffffffffffffffffffff168152602001908152602001600020600a01819055506003600a60008473ffffffffffffffffffffffffffffffffffffffff1673ffffffffffffffffffffffffffffffffffffffff168152602001908152602001600020600301819055506040518060400160405280601b81526020017f5265636f726420697320717565726965642062792061756469742e0000000000815250600a60008473ffffffffffffffffffffffffffffffffffffffff1673ffffffffffffffffffffffffffffffffffffffff16815260200190815260200160002060020190805190602001906130a092919061473c565b507fd389c9d6eec9dc6179e4cfc56c2b4a3ddab405290f85c5ca35457c25da541465600a60008473ffffffffffffffffffffffffffffffffffffffff1673ffffffffffffffffffffffffffffffffffffffff168152602001908152602001600020600201600a60008573ffffffffffffffffffffffffffffffffffffffff1673ffffffffffffffffffffffffffffffffffffffff16815260200190815260200160002060030154600a60008673ffffffffffffffffffffffffffffffffffffffff1673ffffffffffffffffffffffffffffffffffffffff16815260200190815260200160002060060154604051808060200184815260200183815260200182810382528581815460018160011615610100020316600290048152602001915080546001816001161561010002031660029004801561321f5780601f106131f45761010080835404028352916020019161321f565b820191906000526020600020905b81548152906001019060200180831161320257829003601f168201915b505094505050505060405180910390a1919050565b6060600a60008373ffffffffffffffffffffffffffffffffffffffff1673ffffffffffffffffffffffffffffffffffffffff16815260200190815260200160002060000160009054906101000a900460ff1661328f57600080fd5b600b60003373ffffffffffffffffffffffffffffffffffffffff1673ffffffffffffffffffffffffffffffffffffffff16815260200190815260200160002060009054906101000a900460ff16806133305750600c60003373ffffffffffffffffffffffffffffffffffffffff1673ffffffffffffffffffffffffffffffffffffffff16815260200190815260200160002060009054906101000a900460ff165b61333957600080fd5b6001600a60008473ffffffffffffffffffffffffffffffffffffffff1673ffffffffffffffffffffffffffffffffffffffff16815260200190815260200160002060030154141561338957600080fd5b600b60003373ffffffffffffffffffffffffffffffffffffffff1673ffffffffffffffffffffffffffffffffffffffff16815260200190815260200160002060009054906101000a900460ff16156137065733600a60008473ffffffffffffffffffffffffffffffffffffffff1673ffffffffffffffffffffffffffffffffffffffff16815260200190815260200160002060070160006101000a81548173ffffffffffffffffffffffffffffffffffffffff021916908373ffffffffffffffffffffffffffffffffffffffff16021790555042600a60008473ffffffffffffffffffffffffffffffffffffffff1673ffffffffffffffffffffffffffffffffffffffff168152602001908152602001600020600801819055506004600a60008473ffffffffffffffffffffffffffffffffffffffff1673ffffffffffffffffffffffffffffffffffffffff168152602001908152602001600020600301819055506040518060400160405280601c81526020017f5265636f7264206973207072696e74656420627920646f63746f722e00000000815250600a60008473ffffffffffffffffffffffffffffffffffffffff1673ffffffffffffffffffffffffffffffffffffffff168152602001908152602001600020600201908051906020019061357692919061473c565b507f291023100cfc44fba59b279273f751e0fa64289217179d5c9835fc07ab5b1e4f600a60008473ffffffffffffffffffffffffffffffffffffffff1673ffffffffffffffffffffffffffffffffffffffff168152602001908152602001600020600201600a60008573ffffffffffffffffffffffffffffffffffffffff1673ffffffffffffffffffffffffffffffffffffffff16815260200190815260200160002060030154600a60008673ffffffffffffffffffffffffffffffffffffffff1673ffffffffffffffffffffffffffffffffffffffff1681526020019081526020016000206006015460405180806020018481526020018381526020018281038252858181546001816001161561010002031660029004815260200191508054600181600116156101000203166002900480156136f55780601f106136ca576101008083540402835291602001916136f5565b820191906000526020600020905b8154815290600101906020018083116136d857829003601f168201915b505094505050505060405180910390a15b600c60003373ffffffffffffffffffffffffffffffffffffffff1673ffffffffffffffffffffffffffffffffffffffff16815260200190815260200160002060009054906101000a900460ff1615613a835733600a60008473ffffffffffffffffffffffffffffffffffffffff1673ffffffffffffffffffffffffffffffffffffffff16815260200190815260200160002060090160006101000a81548173ffffffffffffffffffffffffffffffffffffffff021916908373ffffffffffffffffffffffffffffffffffffffff16021790555042600a60008473ffffffffffffffffffffffffffffffffffffffff1673ffffffffffffffffffffffffffffffffffffffff168152602001908152602001600020600a01819055506004600a60008473ffffffffffffffffffffffffffffffffffffffff1673ffffffffffffffffffffffffffffffffffffffff168152602001908152602001600020600301819055506040518060400160405280601b81526020017f5265636f7264206973207072696e7465642062792061756469742e0000000000815250600a60008473ffffffffffffffffffffffffffffffffffffffff1673ffffffffffffffffffffffffffffffffffffffff16815260200190815260200160002060020190805190602001906138f392919061473c565b507f291023100cfc44fba59b279273f751e0fa64289217179d5c9835fc07ab5b1e4f600a60008473ffffffffffffffffffffffffffffffffffffffff1673ffffffffffffffffffffffffffffffffffffffff168152602001908152602001600020600201600a60008573ffffffffffffffffffffffffffffffffffffffff1673ffffffffffffffffffffffffffffffffffffffff16815260200190815260200160002060030154600a60008673ffffffffffffffffffffffffffffffffffffffff1673ffffffffffffffffffffffffffffffffffffffff168152602001908152602001600020600601546040518080602001848152602001838152602001828103825285818154600181600116156101000203166002900481526020019150805460018160011615610100020316600290048015613a725780601f10613a4757610100808354040283529160200191613a72565b820191906000526020600020905b815481529060010190602001808311613a5557829003601f168201915b505094505050505060405180910390a15b919050565b60603373ffffffffffffffffffffffffffffffffffffffff166000809054906101000a900473ffffffffffffffffffffffffffffffffffffffff1673ffffffffffffffffffffffffffffffffffffffff1614613ae357600080fd5b600c60008373ffffffffffffffffffffffffffffffffffffffff1673ffffffffffffffffffffffffffffffffffffffff16815260200190815260200160002060009054906101000a900460ff1615613b8e576000600c60008473ffffffffffffffffffffffffffffffffffffffff1673ffffffffffffffffffffffffffffffffffffffff16815260200190815260200160002060006101000a81548160ff0219169083151502179055505b7fab14abf9ce720d4dfa04591da5de1ead53e0c4fdadfca225baaea81626567d4d824260405180806020018473ffffffffffffffffffffffffffffffffffffffff1673ffffffffffffffffffffffffffffffffffffffff168152602001838152602001828103825260148152602001807f416e2061756469742069732072656d6f7665642e000000000000000000000000815250602001935050505060405180910390a16040518060400160405280601481526020017f4120646f63746f722069732072656d6f7665642e0000000000000000000000008152509050919050565b60603373ffffffffffffffffffffffffffffffffffffffff166000809054906101000a900473ffffffffffffffffffffffffffffffffffffffff1673ffffffffffffffffffffffffffffffffffffffff1614613cca57600080fd5b600b60008373ffffffffffffffffffffffffffffffffffffffff1673ffffffffffffffffffffffffffffffffffffffff16815260200190815260200160002060009054906101000a900460ff16613d74576001600b60008473ffffffffffffffffffffffffffffffffffffffff1673ffffffffffffffffffffffffffffffffffffffff16815260200190815260200160002060006101000a81548160ff0219169083151502179055505b7f51ab0ad16f4f10b093a4b9bc75d760dc953842c743d54ae9faa9b5aae40659aa824260405180806020018473ffffffffffffffffffffffffffffffffffffffff1673ffffffffffffffffffffffffffffffffffffffff168152602001838152602001828103825260128152602001807f4120646f63746f722069732061646465642e0000000000000000000000000000815250602001935050505060405180910390a16040518060400160405280601981526020017f4120646f63746f7220697320676976656e206163636573732e000000000000008152509050919050565b6060600a60008373ffffffffffffffffffffffffffffffffffffffff1673ffffffffffffffffffffffffffffffffffffffff16815260200190815260200160002060000160009054906101000a900460ff16613eb057600080fd5b600b60003373ffffffffffffffffffffffffffffffffffffffff1673ffffffffffffffffffffffffffffffffffffffff16815260200190815260200160002060009054906101000a900460ff1680613f515750600c60003373ffffffffffffffffffffffffffffffffffffffff1673ffffffffffffffffffffffffffffffffffffffff16815260200190815260200160002060009054906101000a900460ff165b613fc3576040517f08c379a000000000000000000000000000000000000000000000000000000000815260040180806020018281038252600b8152602001807f4e6f7420776f726b696e6700000000000000000000000000000000000000000081525060200191505060405180910390fd5b6001600a60008473ffffffffffffffffffffffffffffffffffffffff1673ffffffffffffffffffffffffffffffffffffffff16815260200190815260200160002060030154141561401357600080fd5b33600a60008473ffffffffffffffffffffffffffffffffffffffff1673ffffffffffffffffffffffffffffffffffffffff16815260200190815260200160002060070160006101000a81548173ffffffffffffffffffffffffffffffffffffffff021916908373ffffffffffffffffffffffffffffffffffffffff16021790555042600a60008473ffffffffffffffffffffffffffffffffffffffff1673ffffffffffffffffffffffffffffffffffffffff168152602001908152602001600020600801819055506005600a60008473ffffffffffffffffffffffffffffffffffffffff1673ffffffffffffffffffffffffffffffffffffffff168152602001908152602001600020600301819055506040518060400160405280601b81526020017f5265636f726420697320636f7069656420627920646f63746f722e0000000000815250600a60008473ffffffffffffffffffffffffffffffffffffffff1673ffffffffffffffffffffffffffffffffffffffff16815260200190815260200160002060020190805190602001906141ae92919061473c565b507f49b37b6c2e1da17dbf397324fe77f392778404db069d7652d87feb8e0be2bb1d600a60008473ffffffffffffffffffffffffffffffffffffffff1673ffffffffffffffffffffffffffffffffffffffff168152602001908152602001600020600201600a60008573ffffffffffffffffffffffffffffffffffffffff1673ffffffffffffffffffffffffffffffffffffffff16815260200190815260200160002060030154600a60008673ffffffffffffffffffffffffffffffffffffffff1673ffffffffffffffffffffffffffffffffffffffff16815260200190815260200160002060060154604051808060200184815260200183815260200182810382528581815460018160011615610100020316600290048152602001915080546001816001161561010002031660029004801561432d5780601f106143025761010080835404028352916020019161432d565b820191906000526020600020905b81548152906001019060200180831161431057829003601f168201915b505094505050505060405180910390a1919050565b606060011515600a60008473ffffffffffffffffffffffffffffffffffffffff1673ffffffffffffffffffffffffffffffffffffffff16815260200190815260200160002060000160009054906101000a900460ff161515146143a457600080fd5b3373ffffffffffffffffffffffffffffffffffffffff16600a60008473ffffffffffffffffffffffffffffffffffffffff1673ffffffffffffffffffffffffffffffffffffffff16815260200190815260200160002060050160009054906101000a900473ffffffffffffffffffffffffffffffffffffffff1673ffffffffffffffffffffffffffffffffffffffff161461443e57600080fd5b6001600a60008473ffffffffffffffffffffffffffffffffffffffff1673ffffffffffffffffffffffffffffffffffffffff16815260200190815260200160002060030154141561448e57600080fd5b42600a60008473ffffffffffffffffffffffffffffffffffffffff1673ffffffffffffffffffffffffffffffffffffffff168152602001908152602001600020600601819055506004600a60008473ffffffffffffffffffffffffffffffffffffffff1673ffffffffffffffffffffffffffffffffffffffff168152602001908152602001600020600301819055506040518060400160405280601d81526020017f5265636f7264206973207072696e7465642062792070617469656e742e000000815250600a60008473ffffffffffffffffffffffffffffffffffffffff1673ffffffffffffffffffffffffffffffffffffffff16815260200190815260200160002060020190805190602001906145a892919061473c565b507fddaa844cc6ae769766c27824c8e5c94b60683cee90d23f0a99f33b2b243a1fde600a60008473ffffffffffffffffffffffffffffffffffffffff1673ffffffffffffffffffffffffffffffffffffffff168152602001908152602001600020600201600a60008573ffffffffffffffffffffffffffffffffffffffff1673ffffffffffffffffffffffffffffffffffffffff16815260200190815260200160002060030154600a60008673ffffffffffffffffffffffffffffffffffffffff1673ffffffffffffffffffffffffffffffffffffffff1681526020019081526020016000206006015460405180806020018481526020018381526020018281038252858181546001816001161561010002031660029004815260200191508054600181600116156101000203166002900480156147275780601f106146fc57610100808354040283529160200191614727565b820191906000526020600020905b81548152906001019060200180831161470a57829003601f168201915b505094505050505060405180910390a1919050565b828054600181600116156101000203166002900490600052602060002090601f016020900481019282601f1061477d57805160ff19168380011785556147ab565b828001600101855582156147ab579182015b828111156147aa57825182559160200191906001019061478f565b5b5090506147b891906147bc565b5090565b6147de91905b808211156147da5760008160009055506001016147c2565b5090565b9056fea2646970667358221220d010283b34ae292cb45ad7b333e360ffd2359e7a549eec151152cc04b247141664736f6c63430006060033",
  "immutableReferences": {},
  "source": "pragma solidity ^0.6.6;\n\ncontract Patient{\n    \n    /////////// VARIABLES ///////////////////\n    \n    // address\n    address owner;\n    \n    //identity\n    string private firstName;\n    string private lastName;\n    string private IID;\n    \n    //birthday\n    string private bdate;\n    \n    //contract\n    string private email;\n    string private phone;\n    string private zip;\n    string private city;\n    \n    // keys\n    string encryption_key;\n    \n    /////////// VARIABLES END ///////////////\n\n    \n    \n    /////////// DECLARATIONS ////////////\n    \n    struct medical_record{\n        bool is_uid_generated;\n        uint256 record_id;\n        string record_msg;\n        uint record_status; // 0-Created, 1-Deleted, 2-Changed, 3-Queried, 4-Printed, 5-Copied\n        \n        // all images files etc will be stored here\n        string record_details;\n        \n        address patient_address;\n        uint record_time;\n        \n        address doctor;\n        uint doctor_time;\n        \n        address audit;\n        uint audit_time;\n    }\n    \n    /////////// DECLARATIONS END////////\n    \n    \n    ////////// MAPPINGS ////////////////\n    \n    mapping (address => medical_record) public record_mapping; \n    mapping (address => bool) public doctors;\n    mapping (address => bool) public audits;\n    ////////// MAPPINGS END ////////////\n    \n    \n    ////////// MODIFIERS ///////////////////\n    \n    // initiate  patient data\n    constructor (string memory _firstName, string memory _lastName, string memory _IID, \n                string memory _bdate, string memory _email, string memory _phone, \n                string memory _zip, string memory _city, string memory _encryption_key) public\n    {\n        owner = msg.sender;\n        firstName = _firstName ;\n        lastName = _lastName;\n        IID = _IID;\n        bdate = _bdate;\n        email = _email;\n        phone = _phone;\n        zip = _zip;\n        city = _city;\n        encryption_key = _encryption_key;\n    }\n    \n    // make the patient using this contract only owner\n    modifier only_owner(){\n        require(owner == msg.sender);\n        _;\n    }\n    \n    ////////// MODIFIERS END////////////////\n\n    ////////////// EVENTS ////////////////////\n    event event_start_visit(\n        address record_unique_id,\n        string record_msg,\n        uint record_status,\n        uint record_time\n        );\n        \n    event event_add_doctor(\n        string return_msg,\n        address doctor_address,\n        uint record_time\n        );\n    event event_remove_doctor(\n        string return_msg,\n        address doctor_address,\n        uint record_time\n        );\n    event event_add_audit(\n        string return_msg,\n        address audit_address,\n        uint record_time\n        );\n    event event_remove_audit(\n        string return_msg,\n        address audit_address,\n        uint record_time\n        );\n    event event_patient_print(\n        string record_msg,\n        uint record_status,\n        uint record_time\n        );\n    event event_patient_delete(\n        string record_msg,\n        uint record_status,\n        uint record_time\n        );\n    event event_doctor_delete(\n        string record_msg,\n        uint record_status,\n        uint record_time\n        );\n    event event_doctor_print(\n        string record_msg,\n        uint record_status,\n        uint record_time\n        );\n    event event_doctor_copy(\n        string record_msg,\n        uint record_status,\n        uint record_time\n        );\n    event event_doctor_query(\n        string record_msg,\n        uint record_status,\n        uint record_time\n        );\n    event event_doctor_update(\n        string record_msg,\n        uint record_status,\n        uint record_time\n        );\n    \n    ////////////// EVENTS END////////////////\n    \n    ////////// PATIENT FUNCTIONS //////////////\n    \n    // create a medical record with unique id\n    // patient makes appointment\n    function start_visit(uint _time) public only_owner returns (address){\n        address unique_id = address(uint256(sha256(abi.encodePacked(msg.sender, now))));\n        record_mapping[unique_id].is_uid_generated = true;\n        record_mapping[unique_id].record_id = uint256(unique_id);\n        record_mapping[unique_id].record_msg = \"New Medical Record is created\";\n        record_mapping[unique_id].record_status = 0;\n        \n        record_mapping[unique_id].record_details = \"Visit initiate\";\n        \n        record_mapping[unique_id].patient_address = msg.sender;\n        record_mapping[unique_id].record_time = _time;\n        emit event_start_visit(\n            unique_id,\n            record_mapping[unique_id].record_msg,\n            record_mapping[unique_id].record_status, \n            record_mapping[unique_id].record_time);\n        return unique_id;\n    }\n    \n    // give permissions to doctors -- authorize doctors\n    function addDoctors(address _doctor_address) public only_owner returns (string memory) {\n       \n        // if doctor is not authorized yet\n        if(!doctors[_doctor_address]){\n            doctors[_doctor_address] = true;\n        }\n        emit event_add_doctor(\"A doctor is added.\", _doctor_address, now);\n        return \"A doctor is given access.\";\n    }\n    \n    // take back permissions -- delete authorization of doctors\n    function removeDoctors(address _doctor_address) public only_owner returns (string memory) {\n       \n        // if doctor is authorized \n        if(doctors[_doctor_address]){\n            doctors[_doctor_address] = false;\n        }\n        emit event_remove_doctor(\"A doctor is removed.\", _doctor_address, now);\n        return \"A doctor is removed.\";\n    }\n    \n    // Give permissions to audits\n    // give permissions to doctors -- authorize doctors\n    function addAudit(address _audit_address) public only_owner returns (string memory) {\n       \n        // if doctor is not authorized yet\n        if(!audits[_audit_address]){\n            audits[_audit_address] = true;\n        }\n        emit event_add_audit(\"An audit is added.\", _audit_address, now);\n        return \"An audit is added.\";\n    }\n    \n    // take back permissions -- delete authorization of doctors\n    function removeAudit(address _audit_address) public only_owner returns (string memory) {\n       \n        // if doctor is authorized \n        if(audits[_audit_address]){\n            audits[_audit_address] = false;\n        }\n        emit event_remove_audit(\"An audit is removed.\", _audit_address, now);\n        return \"A doctor is removed.\";\n    }\n    \n    //////////// PATIENT FUNCTIONS END ///////////\n    \n    /////////// GET MEDICAL RECORDS /////////////\n    function get_record_details(address _unique_id) view public returns (string memory) {\n        require(record_mapping[_unique_id].is_uid_generated == true);\n        require(record_mapping[_unique_id].record_status!=1);\n        if(record_mapping[_unique_id].patient_address == msg.sender){\n            require(record_mapping[_unique_id].patient_address == msg.sender);\n            return record_mapping[_unique_id].record_details;\n        }\n        if(doctors[msg.sender]){\n            require(doctors[msg.sender], \"Not working\");\n            return record_mapping[_unique_id].record_details;\n        }\n         if(audits[msg.sender]){\n            require(audits[msg.sender], \"Not working\");\n            return record_mapping[_unique_id].record_details;\n        }\n        return \"You have no authorization.\";\n    }\n\n    /////////// END GET MEDICAL RECORDS /////////\n\n    \n    /////////// MODIFICATION OF MEDICAL DATA  /////////////////\n    \n    // patient can delete his/her medical record\n    function delete_record(address _unique_id) public returns (string memory){\n        require(record_mapping[_unique_id].is_uid_generated == true);\n        require(record_mapping[_unique_id].patient_address == msg.sender);\n        require(record_mapping[_unique_id].record_status!=1);\n         \n        record_mapping[_unique_id].record_details = \"\";\n        record_mapping[_unique_id].record_time = now;\n\n        \n        record_mapping[_unique_id].record_status = 1;\n        record_mapping[_unique_id].record_msg = \"Record is deleted by patient.\";\n        emit event_patient_delete(\n            record_mapping[_unique_id].record_msg,\n            record_mapping[_unique_id].record_status,\n            record_mapping[_unique_id].record_time\n        );\n        return \"Record is deleted by patient.\";\n        \n    }\n    \n    // patient can print his/her medical record\n    function print_record(address _unique_id) public returns (string memory){\n        require(record_mapping[_unique_id].is_uid_generated == true);\n        require(record_mapping[_unique_id].patient_address == msg.sender);\n        require(record_mapping[_unique_id].record_status!=1);\n         \n        record_mapping[_unique_id].record_time = now;\n\n        record_mapping[_unique_id].record_status = 4;\n        record_mapping[_unique_id].record_msg = \"Record is printed by patient.\";\n        emit event_patient_print(\n            record_mapping[_unique_id].record_msg,\n            record_mapping[_unique_id].record_status,\n            record_mapping[_unique_id].record_time\n        );\n    }\n    \n    // check\n    // doctor deletes medical record\n    function doctor_delete_record(address _unique_id) public returns (string memory){\n        require(record_mapping[_unique_id].is_uid_generated);\n        require(record_mapping[_unique_id].record_status!=1);\n    \n        record_mapping[_unique_id].doctor = msg.sender;\n        record_mapping[_unique_id].doctor_time = now;\n        \n        record_mapping[_unique_id].record_details = \"\";\n        record_mapping[_unique_id].record_status = 1;\n        record_mapping[_unique_id].record_msg = \"Record is deleted by doctor.\";\n        emit event_doctor_delete(\n            record_mapping[_unique_id].record_msg,\n            record_mapping[_unique_id].record_status,\n            record_mapping[_unique_id].record_time\n        );\n    }\n    \n    // doctor prints medical record\n    function doctor_print_record(address _unique_id) public returns (string memory){\n        require(record_mapping[_unique_id].is_uid_generated);\n        require(doctors[msg.sender] || audits[msg.sender]);\n        require(record_mapping[_unique_id].record_status!=1);\n        if(doctors[msg.sender]){\n        record_mapping[_unique_id].doctor = msg.sender;\n        record_mapping[_unique_id].doctor_time = now;\n        \n        record_mapping[_unique_id].record_status = 4;\n        record_mapping[_unique_id].record_msg = \"Record is printed by doctor.\";\n        emit event_doctor_print(\n            record_mapping[_unique_id].record_msg,\n            record_mapping[_unique_id].record_status,\n            record_mapping[_unique_id].record_time\n        );\n        }\n         if(audits[msg.sender]){\n        record_mapping[_unique_id].audit = msg.sender;\n        record_mapping[_unique_id].audit_time = now;\n        \n        record_mapping[_unique_id].record_status = 4;\n        record_mapping[_unique_id].record_msg = \"Record is printed by audit.\";\n        emit event_doctor_print(\n            record_mapping[_unique_id].record_msg,\n            record_mapping[_unique_id].record_status,\n            record_mapping[_unique_id].record_time\n        );\n        }\n    }\n\n    // doctor query medical record\n    function doctor_query_record(address _unique_id) public returns (string memory){\n        require(record_mapping[_unique_id].is_uid_generated);\n        require(audits[msg.sender]);\n        require(record_mapping[_unique_id].record_status!=1);\n    \n        record_mapping[_unique_id].audit = msg.sender;\n        record_mapping[_unique_id].audit_time = now;\n        \n        record_mapping[_unique_id].record_status = 3;\n        record_mapping[_unique_id].record_msg = \"Record is queried by audit.\";\n        emit event_doctor_query(\n            record_mapping[_unique_id].record_msg,\n            record_mapping[_unique_id].record_status,\n            record_mapping[_unique_id].record_time\n        );\n    }\n    \n    // doctor copy medical record\n    function doctor_copy_record(address _unique_id) public returns (string memory){\n        require(record_mapping[_unique_id].is_uid_generated);\n        require(doctors[msg.sender] || audits[msg.sender], \"Not working\");\n        require(record_mapping[_unique_id].record_status!=1);\n    \n        record_mapping[_unique_id].doctor = msg.sender;\n        record_mapping[_unique_id].doctor_time = now;\n        \n        record_mapping[_unique_id].record_status = 5;\n        record_mapping[_unique_id].record_msg = \"Record is copied by doctor.\";\n        emit event_doctor_copy(\n            record_mapping[_unique_id].record_msg,\n            record_mapping[_unique_id].record_status,\n            record_mapping[_unique_id].record_time\n        );\n    }\n    \n     // doctor update medical record\n    function doctor_update_record(address _unique_id, string memory _update) public returns (string memory){\n        require(record_mapping[_unique_id].is_uid_generated);\n        require(doctors[msg.sender]);\n        require(record_mapping[_unique_id].record_status!=1);\n    \n        record_mapping[_unique_id].doctor = msg.sender;\n        record_mapping[_unique_id].doctor_time = now;\n        record_mapping[_unique_id].record_details = _update;\n        record_mapping[_unique_id].record_status = 5;\n        record_mapping[_unique_id].record_msg = \"Record is updated by doctor.\";\n        emit event_doctor_update(\n            record_mapping[_unique_id].record_msg,\n            record_mapping[_unique_id].record_status,\n            record_mapping[_unique_id].record_time\n        );\n    }\n    ////////////MODIFICATION OF MEDICAL DATA END ///////////////\n    \n}",
  "sourcePath": "/Users/shoby/Desktop/USC/Courses/Spring_22/Applied Cryptography/EHRBlockchain-main/contracts/Patient.sol",
  "compiler": {
    "name": "solc",
    "version": "0.6.6+commit.6c089d02.Emscripten.clang"
  },
  "schemaVersion": "3.4.7",
  "updatedAt": "2022-05-01T07:31:41.442Z",
  "networkType": "ethereum",
  "devdoc": {
    "methods": {}
  },
  "userdoc": {
    "methods": {
      "constructor": "/////// MAPPINGS END //////////// /////// MODIFIERS ///////////////////",
      "delete_record(address)": {
        "notice": "//////// END GET MEDICAL RECORDS ///////// //////// MODIFICATION OF MEDICAL DATA  /////////////////"
      },
      "get_record_details(address)": {
        "notice": "///////// PATIENT FUNCTIONS END /////////// //////// GET MEDICAL RECORDS /////////////"
      },
      "start_visit(uint256)": {
        "notice": "/////////// EVENTS END//////////////// /////// PATIENT FUNCTIONS //////////////"
      }
    }
  }
}